:020000040000FA
:10000000831685018501FF30850086018601003059
:1000100086008312003086000130A3000301A00097
:10002000A100FF002630840015201C201F20222064
:10003000252028202B20152805183A280800851887
:100040004228080005194A28080085195228080086
:10005000051A7A280800861A7F2808003A285A28A4
:1000600008004228622808004A286A280800522806
:100070007228080005183A28840A800001302007F9
:10008000A000080085184228840A8000023020075A
:10009000A000080005194A28840A800004302007BF
:1000A000A000080085195228840A80000830200723
:1000B000A000080005183A28840A80000130A10732
:1000C000A100080085184228840A80000230A10798
:1000D000A100080005194A28840A80000430A107FD
:1000E000A100080085195228840A80000830A10761
:1000F000A1000800051A7A280030A1000800861A1D
:080100007F282008860008009A
:02400E00F13F80
:00000001FF
